Component: ARM Compiler 5.06 update 7 (build 960) Tool: armlink [4d3601]

==============================================================================

Section Cross References

    msp432carmain.o(i.fputc) refers to uart.o(i.UART_transmitData) for UART_transmitData
    msp432carmain.o(i.main) refers to wdt_a.o(i.WDT_A_holdTimer) for WDT_A_holdTimer
    msp432carmain.o(i.main) refers to sysinit.o(i.SysInit) for SysInit
    msp432carmain.o(i.main) refers to key.o(i.key_Init) for key_Init
    msp432carmain.o(i.main) refers to msp432carmain.o(i.motor_pinint) for motor_pinint
    msp432carmain.o(i.main) refers to gpio.o(i.GPIO_setAsInputPin) for GPIO_setAsInputPin
    msp432carmain.o(i.main) refers to gpio.o(i.GPIO_setAsOutputPin) for GPIO_setAsOutputPin
    msp432carmain.o(i.main) refers to gpio.o(i.GPIO_setOutputLowOnPin) for GPIO_setOutputLowOnPin
    msp432carmain.o(i.main) refers to delay.o(i.delay_init) for delay_init
    msp432carmain.o(i.main) refers to tima.o(i.TimA0_4_PWM_Init) for TimA0_4_PWM_Init
    msp432carmain.o(i.main) refers to tima.o(i.TimA1_4_PWM_Init) for TimA1_4_PWM_Init
    msp432carmain.o(i.main) refers to tima.o(i.TimA1_4_PWM_set_angle) for TimA1_4_PWM_set_angle
    msp432carmain.o(i.main) refers to delay.o(i.delay_ms) for delay_ms
    msp432carmain.o(i.main) refers to tima.o(i.TimA2_Int_Init) for TimA2_Int_Init
    msp432carmain.o(i.main) refers to interrupt.o(i.Interrupt_enableMaster) for Interrupt_enableMaster
    msp432carmain.o(i.main) refers to key.o(i.key_Value) for key_Value
    msp432carmain.o(i.main) refers to msp432carmain.o(i.stop) for stop
    msp432carmain.o(i.main) refers to gpio.o(i.GPIO_setOutputHighOnPin) for GPIO_setOutputHighOnPin
==============================================================================

Removing Unused input sections from the image.

    Removing msp432carmain.o(.rev16_text), (4 bytes).
    Removing msp432carmain.o(.revsh_text), (4 bytes).
    Removing msp432carmain.o(.rrx_text), (6 bytes).
    Removing msp432carmain.o(i.fputc), (16 bytes).
    Removing delay.o(.rev16_text), (4 bytes).
    Removing delay.o(.revsh_text), (4 bytes).
    Removing delay.o(.rrx_text), (6 bytes).
    Removing key.o(.rev16_text), (4 bytes).
    Removing key.o(.revsh_text), (4 bytes).
    Removing key.o(.rrx_text), (6 bytes).
    Removing sysinit.o(.rev16_text), (4 bytes).
    Removing sysinit.o(.revsh_text), (4 bytes).
    Removing sysinit.o(.rrx_text), (6 bytes).
    Removing tima.o(.rev16_text), (4 bytes).
    Removing tima.o(.revsh_text), (4 bytes).
    Removing tima.o(.rrx_text), (6 bytes).
    Removing tima.o(i.TimA1_4_PWM_stop), (6 bytes).
    Removing tima.o(i.i2c_init), (160 bytes).
==============================================================================

Image Symbol Table

    Local Symbols

    Symbol Name                              Value     Ov Type        Size  Object(Section)

    RESET                                    0x00000000   Section      324  startup_msp432p401r_uvision.o(RESET)
    ../clib/microlib/init/entry.s            0x00000000   Number         0  entry11a.o ABSOLUTE
    ../clib/microlib/init/entry.s            0x00000000   Number         0  entry10b.o ABSOLUTE
    ../clib/microlib/init/entry.s            0x00000000   Number         0  entry8a.o ABSOLUTE
    ../clib/microlib/init/entry.s            0x00000000   Number         0  entry10a.o ABSOLUTE
    ../clib/microlib/init/entry.s            0x00000000   Number         0  entry9b.o ABSOLUTE
    ../clib/microlib/init/entry.s            0x00000000   Number         0  entry8b.o ABSOLUTE
    ../clib/microlib/init/entry.s            0x00000000   Number         0  entry9a.o ABSOLUTE
    ../clib/microlib/init/entry.s            0x00000000   Number         0  entry.o ABSOLUTE
    ../clib/microlib/init/entry.s            0x00000000   Number         0  entry2.o ABSOLUTE
    ../clib/microlib/init/entry.s            0x00000000   Number         0  entry12a.o ABSOLUTE
    ../clib/microlib/init/entry.s            0x00000000   Number         0  entry5.o ABSOLUTE
    ../clib/microlib/init/entry.s            0x00000000   Number         0  entry7a.o ABSOLUTE
    ../clib/microlib/init/entry.s            0x00000000   Number         0  entry12b.o ABSOLUTE
    ../clib/microlib/init/entry.s            0x00000000   Number         0  entry11b.o ABSOLUTE
    ../clib/microlib/init/entry.s            0x00000000   Number         0  entry7b.o ABSOLUTE
    ../clib/microlib/longlong.c              0x00000000   Number         0  llsshr.o ABSOLUTE
    ../clib/microlib/longlong.c              0x00000000   Number         0  llushr.o ABSOLUTE
    ../clib/microlib/longlong.c              0x00000000   Number         0  llshl.o ABSOLUTE
    ../clib/microlib/stubs.s                 0x00000000   Number         0  iusefp.o ABSOLUTE
    ../fplib/microlib/fpadd.c                0x00000000   Number         0  dadd.o ABSOLUTE
    ../fplib/microlib/fpdiv.c                0x00000000   Number         0  ddiv.o ABSOLUTE
    ../fplib/microlib/fpepilogue.c           0x00000000   Number         0  depilogue.o ABSOLUTE
    ../fplib/microlib/fpfix.c                0x00000000   Number         0  dfixui.o ABSOLUTE
    ../fplib/microlib/fpflt.c                0x00000000   Number         0  dflti.o ABSOLUTE
    ../fplib/microlib/fpmul.c                0x00000000   Number         0  dmul.o ABSOLUTE
    ..\Msp432CarMain.c                       0x00000000   Number         0  msp432carmain.o ABSOLUTE
    ..\\Msp432CarMain.c                      0x00000000   Number         0  msp432carmain.o ABSOLUTE
    ..\\lib\\delay.c                         0x00000000   Number         0  delay.o ABSOLUTE
    ..\\lib\\key.c                           0x00000000   Number         0  key.o ABSOLUTE
    ..\\lib\\sysinit.c                       0x00000000   Number         0  sysinit.o ABSOLUTE
    ..\\lib\\timA.c                          0x00000000   Number         0  tima.o ABSOLUTE
    ..\lib\PID.c                             0x00000000   Number         0  pid.o ABSOLUTE
    ..\lib\delay.c                           0x00000000   Number         0  delay.o ABSOLUTE
    ..\lib\key.c                             0x00000000   Number         0  key.o ABSOLUTE
    ..\lib\sysinit.c                         0x00000000   Number         0  sysinit.o ABSOLUTE
    ..\lib\timA.c                            0x00000000   Number         0  tima.o ABSOLUTE
    RTE\Device\MSP432P401R\startup_msp432p401r_uvision.s 0x00000000   Number         0  startup_msp432p401r_uvision.o ABSOLUTE
    RTE\Device\MSP432P401R\system_msp432p401r.c 0x00000000   Number         0  system_msp432p401r.o ABSOLUTE
    RTE\\Device\\MSP432P401R\\system_msp432p401r.c 0x00000000   Number         0  system_msp432p401r.o ABSOLUTE
    cpu.c                                    0x00000000   Number         0  cpu.o ABSOLUTE
    cpu.c                                    0x00000000   Number         0  cpu.o ABSOLUTE
    cs.c                                     0x00000000   Number         0  cs.o ABSOLUTE
    cs.c                                     0x00000000   Number         0  cs.o ABSOLUTE
    dc.s                                     0x00000000   Number         0  dc.o ABSOLUTE
    gpio.c                                   0x00000000   Number         0  gpio.o ABSOLUTE
    gpio.c                                   0x00000000   Number         0  gpio.o ABSOLUTE
    handlers.s                               0x00000000   Number         0  handlers.o ABSOLUTE
    init.s                                   0x00000000   Number         0  init.o ABSOLUTE
    interrupt.c                              0x00000000   Number         0  interrupt.o ABSOLUTE
    interrupt.c                              0x00000000   Number         0  interrupt.o ABSOLUTE
    sysctl.c                                 0x00000000   Number         0  sysctl.o ABSOLUTE
    sysctl.c                                 0x00000000   Number         0  sysctl.o ABSOLUTE
    uart.c                                   0x00000000   Number         0  uart.o ABSOLUTE
    uart.c                                   0x00000000   Number         0  uart.o ABSOLUTE
    wdt_a.c                                  0x00000000   Number         0  wdt_a.o ABSOLUTE
    wdt_a.c                                  0x00000000   Number         0  wdt_a.o ABSOLUTE
    .ARM.Collect$$$$00000000                 0x00000144   Section        0  entry.o(.ARM.Collect$$$$00000000)
    .ARM.Collect$$$$00000001                 0x00000144   Section        4  entry2.o(.ARM.Collect$$$$00000001)
    .ARM.Collect$$$$00000004                 0x00000148   Section        4  entry5.o(.ARM.Collect$$$$00000004)
    .ARM.Collect$$$$00000008                 0x0000014c   Section        0  entry7b.o(.ARM.Collect$$$$00000008)
    .ARM.Collect$$$$0000000A                 0x0000014c   Section        0  entry8b.o(.ARM.Collect$$$$0000000A)
    .ARM.Collect$$$$0000000B                 0x0000014c   Section        8  entry9a.o(.ARM.Collect$$$$0000000B)
    .ARM.Collect$$$$0000000E                 0x00000154   Section        4  entry12b.o(.ARM.Collect$$$$0000000E)
    .ARM.Collect$$$$0000000F                 0x00000158   Section        0  entry10a.o(.ARM.Collect$$$$0000000F)
    .ARM.Collect$$$$00000011                 0x00000158   Section        0  entry11a.o(.ARM.Collect$$$$00000011)
    .ARM.Collect$$$$00002712                 0x00000158   Section        4  entry2.o(.ARM.Collect$$$$00002712)
    __lit__00000000                          0x00000158   Data           4  entry2.o(.ARM.Collect$$$$00002712)
    .emb_text                                0x0000015c   Section       38  cpu.o(.emb_text)
    $v0                                      0x0000015c   Number         0  cpu.o(.emb_text)
    .text                                    0x00000184   Section       36  startup_msp432p401r_uvision.o(.text)
    $v0                                      0x00000184   Number         0  startup_msp432p401r_uvision.o(.text)
    .text                                    0x000001a8   Section        0  dadd.o(.text)
    .text                                    0x000002f6   Section        0  dmul.o(.text)
    .text                                    0x000003da   Section        0  ddiv.o(.text)
    .text                                    0x000004b8   Section        0  dflti.o(.text)
    .text                                    0x000004da   Section        0  dfixui.o(.text)
    .text                                    0x0000050c   Section        0  llshl.o(.text)
    .text                                    0x0000052a   Section        0  llushr.o(.text)
    .text                                    0x0000054a   Section        0  llsshr.o(.text)
    .text                                    0x0000056e   Section        0  depilogue.o(.text)
    .text                                    0x0000056e   Section        0  iusefp.o(.text)
    .text                                    0x00000628   Section       36  init.o(.text)
    i.CS_getDCOFrequency                     0x0000064c   Section        0  cs.o(i.CS_getDCOFrequency)
    i.CS_getMCLK                             0x000007bc   Section        0  cs.o(i.CS_getMCLK)
    i.CS_setExternalClockSourceFrequency     0x000007d4   Section        0  cs.o(i.CS_setExternalClockSourceFrequency)
    i.CS_startHFXT                           0x000007e0   Section        0  cs.o(i.CS_startHFXT)
    i.CS_startHFXTWithTimeout                0x000007e8   Section        0  cs.o(i.CS_startHFXTWithTimeout)
    i.CS_startLFXT                           0x0000092c   Section        0  cs.o(i.CS_startLFXT)
    i.CS_startLFXTWithTimeout                0x00000934   Section        0  cs.o(i.CS_startLFXTWithTimeout)
    i.Distance                               0x000009e8   Section        0  tima.o(i.Distance)
    i.EUSCIB0_IRQHandler                     0x00000a68   Section        0  tima.o(i.EUSCIB0_IRQHandler)
    i.GPIO_getInputPinValue                  0x00000ac0   Section        0  gpio.o(i.GPIO_getInputPinValue)
    i.GPIO_setAsInputPin                     0x00000ad4   Section        0  gpio.o(i.GPIO_setAsInputPin)
    i.GPIO_setAsInputPinWithPullUpResistor   0x00000afc   Section        0  gpio.o(i.GPIO_setAsInputPinWithPullUpResistor)
    i.GPIO_setAsOutputPin                    0x00000b28   Section        0  gpio.o(i.GPIO_setAsOutputPin)
    i.GPIO_setOutputHighOnPin                0x00000b48   Section        0  gpio.o(i.GPIO_setOutputHighOnPin)
    i.GPIO_setOutputLowOnPin                 0x00000b5c   Section        0  gpio.o(i.GPIO_setOutputLowOnPin)
    i.HCSR04Init                             0x00000b70   Section        0  tima.o(i.HCSR04Init)
    i.Interrupt_enableMaster                 0x00000bb0   Section        0  interrupt.o(i.Interrupt_enableMaster)
    i.PID_Init                               0x00000bc0   Section        0  pid.o(i.PID_Init)
    i.PID_Update                             0x00000be0   Section        0  pid.o(i.PID_Update)
    i.SysCtl_disableNMISource                0x00000cac   Section        0  sysctl.o(i.SysCtl_disableNMISource)
    i.SysCtl_enableNMISource                 0x00000cbc   Section        0  sysctl.o(i.SysCtl_enableNMISource)
    i.SysCtl_getNMISourceStatus              0x00000ccc   Section        0  sysctl.o(i.SysCtl_getNMISourceStatus)
    i.SysCtl_getTLVInfo                      0x00000cd8   Section        0  sysctl.o(i.SysCtl_getTLVInfo)
    i.SysInit                                0x00000d28   Section        0  sysinit.o(i.SysInit)
    i.SystemInit                             0x00000db4   Section        0  system_msp432p401r.o(i.SystemInit)
    i.TA2_0_IRQHandler                       0x00000e30   Section        0  tima.o(i.TA2_0_IRQHandler)
    i.TimA0_4_PWM_Init                       0x00000ec8   Section        0  tima.o(i.TimA0_4_PWM_Init)
    i.TimA0_4_PWM_set_duty                   0x00000edc   Section        0  tima.o(i.TimA0_4_PWM_set_duty)
    i.TimA0_4_PWM_stop                       0x00000f38   Section        0  tima.o(i.TimA0_4_PWM_stop)
    i.TimA1_4_PWM_Init                       0x00000f40   Section        0  tima.o(i.TimA1_4_PWM_Init)
    i.TimA1_4_PWM_set_angle                  0x00000f70   Section        0  tima.o(i.TimA1_4_PWM_set_angle)
    i.TimA2_Int_Init                         0x00000ff4   Section        0  tima.o(i.TimA2_Int_Init)
    i.WDT_A_holdTimer                        0x00001064   Section        0  wdt_a.o(i.WDT_A_holdTimer)
    i._CSComputeCLKFrequency                 0x0000107c   Section        0  cs.o(i._CSComputeCLKFrequency)
    _CSComputeCLKFrequency                   0x0000107d   Thumb Code   236  cs.o(i._CSComputeCLKFrequency)
    i.__scatterload_copy                     0x00001188   Section       14  handlers.o(i.__scatterload_copy)
    i.__scatterload_null                     0x00001196   Section        2  handlers.o(i.__scatterload_null)
    i.__scatterload_zeroinit                 0x00001198   Section       14  handlers.o(i.__scatterload_zeroinit)
    i.delay_init                             0x000011a8   Section        0  delay.o(i.delay_init)
    i.delay_ms                               0x000011d0   Section        0  delay.o(i.delay_ms)
    i.delay_us                               0x000011e8   Section        0  delay.o(i.delay_us)
    i.key_Init                               0x0000121c   Section        0  key.o(i.key_Init)
    i.key_Value                              0x00001224   Section        0  key.o(i.key_Value)
    i.main                                   0x00001254   Section        0  msp432carmain.o(i.main)
    i.motor_pinint                           0x00001334   Section        0  msp432carmain.o(i.motor_pinint)
    i.read_sensor_values                     0x0000133c   Section        0  tima.o(i.read_sensor_values)
    i.read_us_values                         0x0000147c   Section        0  tima.o(i.read_us_values)
    i.start                                  0x00001490   Section        0  msp432carmain.o(i.start)
    i.stop                                   0x000014ac   Section        0  msp432carmain.o(i.stop)
    .constdata                               0x000014c8   Section       36  msp432carmain.o(.constdata)
    .data                                    0x20000000   Section        1  delay.o(.data)
    fac_us                                   0x20000000   Data           1  delay.o(.data)
    .data                                    0x20000004   Section      176  tima.o(.data)
    TXByteCtr                                0x20000004   Data           1  tima.o(.data)
    stopSent                                 0x20000005   Data           1  tima.o(.data)
    usValue                                  0x2000000c   Data           4  tima.o(.data)
    TimA1_4_PWMConfig                        0x20000084   Data          24  tima.o(.data)
    TimA0_4_PWMConfig                        0x2000009c   Data          24  tima.o(.data)
    .data                                    0x200000b4   Section        8  cs.o(.data)
    hfxtFreq                                 0x200000b4   Data           4  cs.o(.data)
    lfxtFreq                                 0x200000b8   Data           4  cs.o(.data)
    .data                                    0x200000bc   Section       48  gpio.o(.data)
    GPIO_PORT_TO_BASE                        0x200000bc   Data          48  gpio.o(.data)
    STACK                                    0x200000f0   Section      512  startup_msp432p401r_uvision.o(STACK)

    Global Symbols

    Symbol Name                              Value     Ov Type        Size  Object(Section)

    BuildAttributes$$THM_ISAv4$E$P$D$K$B$S$7EM$VFPi3$EXTD16$VFPS$VFMA$PE$A:L22UL41UL21$X:L11$S22US41US21$IEEE1$IW$USESV6$~STKCKD$USESV7$~SHL$OTIME$ROPI$EBA8$MICROLIB$REQ8$PRES8$EABIv2 0x00000000   Number         0  anon$$obj.o ABSOLUTE
    __ARM_use_no_argv                        0x00000000   Number         0  msp432carmain.o ABSOLUTE
    __Vectors                                0x00000000   Data           4  startup_msp432p401r_uvision.o(RESET)
    __arm_fini_                               - Undefined Weak Reference
    __cpp_initialize__aeabi_                  - Undefined Weak Reference
    __cxa_finalize                            - Undefined Weak Reference
    __decompress                              - Undefined Weak Reference
    _clock_init                               - Undefined Weak Reference
    _microlib_exit                            - Undefined Weak Reference
    __Vectors_End                            0x00000144   Data           0  startup_msp432p401r_uvision.o(RESET)
    __Vectors_Size                           0x00000144   Number         0  startup_msp432p401r_uvision.o ABSOLUTE
    __main                                   0x00000145   Thumb Code     0  entry.o(.ARM.Collect$$$$00000000)
    _main_stk                                0x00000145   Thumb Code     0  entry2.o(.ARM.Collect$$$$00000001)
    _main_scatterload                        0x00000149   Thumb Code     0  entry5.o(.ARM.Collect$$$$00000004)
    __main_after_scatterload                 0x0000014d   Thumb Code     0  entry5.o(.ARM.Collect$$$$00000004)
    _main_clock                              0x0000014d   Thumb Code     0  entry7b.o(.ARM.Collect$$$$00000008)
    _main_cpp_init                           0x0000014d   Thumb Code     0  entry8b.o(.ARM.Collect$$$$0000000A)
    _main_init                               0x0000014d   Thumb Code     0  entry9a.o(.ARM.Collect$$$$0000000B)
    __rt_lib_shutdown_fini                   0x00000155   Thumb Code     0  entry12b.o(.ARM.Collect$$$$0000000E)
    __rt_final_cpp                           0x00000159   Thumb Code     0  entry10a.o(.ARM.Collect$$$$0000000F)
    __rt_final_exit                          0x00000159   Thumb Code     0  entry11a.o(.ARM.Collect$$$$00000011)
    CPU_cpsid                                0x0000015d   Thumb Code     8  cpu.o(.emb_text)
    CPU_primask                              0x00000165   Thumb Code     6  cpu.o(.emb_text)
    CPU_cpsie                                0x0000016b   Thumb Code     8  cpu.o(.emb_text)
    CPU_wfi                                  0x00000173   Thumb Code     4  cpu.o(.emb_text)
    CPU_basepriSet                           0x00000177   Thumb Code     6  cpu.o(.emb_text)
    CPU_basepriGet                           0x0000017d   Thumb Code     6  cpu.o(.emb_text)
    Reset_Handler                            0x00000185   Thumb Code     8  startup_msp432p401r_uvision.o(.text)
    NMI_Handler                              0x0000018d   Thumb Code     2  startup_msp432p401r_uvision.o(.text)
    HardFault_Handler                        0x0000018f   Thumb Code     2  startup_msp432p401r_uvision.o(.text)
    MemManage_Handler                        0x00000191   Thumb Code     2  startup_msp432p401r_uvision.o(.text)
    BusFault_Handler                         0x00000193   Thumb Code     2  startup_msp432p401r_uvision.o(.text)
    UsageFault_Handler                       0x00000195   Thumb Code     2  startup_msp432p401r_uvision.o(.text)
    SVC_Handler                              0x00000197   Thumb Code     2  startup_msp432p401r_uvision.o(.text)
    DebugMon_Handler                         0x00000199   Thumb Code     2  startup_msp432p401r_uvision.o(.text)
    PendSV_Handler                           0x0000019b   Thumb Code     2  startup_msp432p401r_uvision.o(.text)
    SysTick_Handler                          0x0000019d   Thumb Code     2  startup_msp432p401r_uvision.o(.text)
    ADC14_IRQHandler                         0x0000019f   Thumb Code     0  startup_msp432p401r_uvision.o(.text)
    AES256_IRQHandler                        0x0000019f   Thumb Code     0  startup_msp432p401r_uvision.o(.text)
    COMP_E0_IRQHandler                       0x0000019f   Thumb Code     0  startup_msp432p401r_uvision.o(.text)
    COMP_E1_IRQHandler                       0x0000019f   Thumb Code     0  startup_msp432p401r_uvision.o(.text)
    CS_IRQHandler                            0x0000019f   Thumb Code     0  startup_msp432p401r_uvision.o(.text)
    DMA_ERR_IRQHandler                       0x0000019f   Thumb Code     0  startup_msp432p401r_uvision.o(.text)
    DMA_INT0_IRQHandler                      0x0000019f   Thumb Code     0  startup_msp432p401r_uvision.o(.text)
    DMA_INT1_IRQHandler                      0x0000019f   Thumb Code     0  startup_msp432p401r_uvision.o(.text)
    DMA_INT2_IRQHandler                      0x0000019f   Thumb Code     0  startup_msp432p401r_uvision.o(.text)
    DMA_INT3_IRQHandler                      0x0000019f   Thumb Code     0  startup_msp432p401r_uvision.o(.text)
    EUSCIA0_IRQHandler                       0x0000019f   Thumb Code     0  startup_msp432p401r_uvision.o(.text)
    EUSCIA1_IRQHandler                       0x0000019f   Thumb Code     0  startup_msp432p401r_uvision.o(.text)
    EUSCIA2_IRQHandler                       0x0000019f   Thumb Code     0  startup_msp432p401r_uvision.o(.text)
    EUSCIA3_IRQHandler                       0x0000019f   Thumb Code     0  startup_msp432p401r_uvision.o(.text)
    EUSCIB1_IRQHandler                       0x0000019f   Thumb Code     0  startup_msp432p401r_uvision.o(.text)
    EUSCIB2_IRQHandler                       0x0000019f   Thumb Code     0  startup_msp432p401r_uvision.o(.text)
    EUSCIB3_IRQHandler                       0x0000019f   Thumb Code     0  startup_msp432p401r_uvision.o(.text)
    FLCTL_IRQHandler                         0x0000019f   Thumb Code     0  startup_msp432p401r_uvision.o(.text)
    FPU_IRQHandler                           0x0000019f   Thumb Code     0  startup_msp432p401r_uvision.o(.text)
    PCM_IRQHandler                           0x0000019f   Thumb Code     0  startup_msp432p401r_uvision.o(.text)
    PORT1_IRQHandler                         0x0000019f   Thumb Code     0  startup_msp432p401r_uvision.o(.text)
    PORT2_IRQHandler                         0x0000019f   Thumb Code     0  startup_msp432p401r_uvision.o(.text)
    PORT3_IRQHandler                         0x0000019f   Thumb Code     0  startup_msp432p401r_uvision.o(.text)
    PORT4_IRQHandler                         0x0000019f   Thumb Code     0  startup_msp432p401r_uvision.o(.text)
    PORT5_IRQHandler                         0x0000019f   Thumb Code     0  startup_msp432p401r_uvision.o(.text)
    PORT6_IRQHandler                         0x0000019f   Thumb Code     0  startup_msp432p401r_uvision.o(.text)
    PSS_IRQHandler                           0x0000019f   Thumb Code     0  startup_msp432p401r_uvision.o(.text)
    RTC_C_IRQHandler                         0x0000019f   Thumb Code     0  startup_msp432p401r_uvision.o(.text)
    T32_INT1_IRQHandler                      0x0000019f   Thumb Code     0  startup_msp432p401r_uvision.o(.text)
    T32_INT2_IRQHandler                      0x0000019f   Thumb Code     0  startup_msp432p401r_uvision.o(.text)
    T32_INTC_IRQHandler                      0x0000019f   Thumb Code     0  startup_msp432p401r_uvision.o(.text)
    TA0_0_IRQHandler                         0x0000019f   Thumb Code     0  startup_msp432p401r_uvision.o(.text)
    TA0_N_IRQHandler                         0x0000019f   Thumb Code     0  startup_msp432p401r_uvision.o(.text)
    TA1_0_IRQHandler                         0x0000019f   Thumb Code     0  startup_msp432p401r_uvision.o(.text)
    TA1_N_IRQHandler                         0x0000019f   Thumb Code     0  startup_msp432p401r_uvision.o(.text)
    TA2_N_IRQHandler                         0x0000019f   Thumb Code     0  startup_msp432p401r_uvision.o(.text)
    TA3_0_IRQHandler                         0x0000019f   Thumb Code     0  startup_msp432p401r_uvision.o(.text)
    TA3_N_IRQHandler                         0x0000019f   Thumb Code     0  startup_msp432p401r_uvision.o(.text)
    WDT_A_IRQHandler                         0x0000019f   Thumb Code     0  startup_msp432p401r_uvision.o(.text)
    __aeabi_dadd                             0x000001a9   Thumb Code   322  dadd.o(.text)
    __aeabi_dsub                             0x000002eb   Thumb Code     6  dadd.o(.text)
    __aeabi_drsub                            0x000002f1   Thumb Code     6  dadd.o(.text)
    __aeabi_dmul                             0x000002f7   Thumb Code   228  dmul.o(.text)
    __aeabi_ddiv                             0x000003db   Thumb Code   222  ddiv.o(.text)
    __aeabi_i2d                              0x000004b9   Thumb Code    34  dflti.o(.text)
    __aeabi_d2uiz                            0x000004db   Thumb Code    50  dfixui.o(.text)
    __aeabi_llsl                             0x0000050d   Thumb Code    30  llshl.o(.text)
    _ll_shift_l                              0x0000050d   Thumb Code     0  llshl.o(.text)
    __aeabi_llsr                             0x0000052b   Thumb Code    32  llushr.o(.text)
    _ll_ushift_r                             0x0000052b   Thumb Code     0  llushr.o(.text)
    __aeabi_lasr                             0x0000054b   Thumb Code    36  llsshr.o(.text)
    _ll_sshift_r                             0x0000054b   Thumb Code     0  llsshr.o(.text)
    __I$use$fp                               0x0000056f   Thumb Code     0  iusefp.o(.text)
    _double_round                            0x0000056f   Thumb Code    30  depilogue.o(.text)
    _double_epilogue                         0x0000058d   Thumb Code   156  depilogue.o(.text)
    __scatterload                            0x00000629   Thumb Code    28  init.o(.text)
    __scatterload_rt2                        0x00000629   Thumb Code     0  init.o(.text)
    CS_getDCOFrequency                       0x0000064d   Thumb Code   332  cs.o(i.CS_getDCOFrequency)
    CS_getMCLK                               0x000007bd   Thumb Code    20  cs.o(i.CS_getMCLK)
    CS_setExternalClockSourceFrequency       0x000007d5   Thumb Code     8  cs.o(i.CS_setExternalClockSourceFrequency)
    CS_startHFXT                             0x000007e1   Thumb Code     6  cs.o(i.CS_startHFXT)
    CS_startHFXTWithTimeout                  0x000007e9   Thumb Code   262  cs.o(i.CS_startHFXTWithTimeout)
    CS_startLFXT                             0x0000092d   Thumb Code     6  cs.o(i.CS_startLFXT)
    CS_startLFXTWithTimeout                  0x00000935   Thumb Code   158  cs.o(i.CS_startLFXTWithTimeout)
    Distance                                 0x000009e9   Thumb Code   112  tima.o(i.Distance)
    EUSCIB0_IRQHandler                       0x00000a69   Thumb Code    74  tima.o(i.EUSCIB0_IRQHandler)
    GPIO_getInputPinValue                    0x00000ac1   Thumb Code    16  gpio.o(i.GPIO_getInputPinValue)
    GPIO_setAsInputPin                       0x00000ad5   Thumb Code    34  gpio.o(i.GPIO_setAsInputPin)
    GPIO_setAsInputPinWithPullUpResistor     0x00000afd   Thumb Code    38  gpio.o(i.GPIO_setAsInputPinWithPullUpResistor)
    GPIO_setAsOutputPin                      0x00000b29   Thumb Code    26  gpio.o(i.GPIO_setAsOutputPin)
    GPIO_setOutputHighOnPin                  0x00000b49   Thumb Code    14  gpio.o(i.GPIO_setOutputHighOnPin)
    GPIO_setOutputLowOnPin                   0x00000b5d   Thumb Code    16  gpio.o(i.GPIO_setOutputLowOnPin)
    HCSR04Init                               0x00000b71   Thumb Code    58  tima.o(i.HCSR04Init)
    Interrupt_enableMaster                   0x00000bb1   Thumb Code    14  interrupt.o(i.Interrupt_enableMaster)
    PID_Init                                 0x00000bc1   Thumb Code    26  pid.o(i.PID_Init)
    PID_Update                               0x00000be1   Thumb Code   202  pid.o(i.PID_Update)
    SysCtl_disableNMISource                  0x00000cad   Thumb Code    12  sysctl.o(i.SysCtl_disableNMISource)
    SysCtl_enableNMISource                   0x00000cbd   Thumb Code    10  sysctl.o(i.SysCtl_enableNMISource)
    SysCtl_getNMISourceStatus                0x00000ccd   Thumb Code     6  sysctl.o(i.SysCtl_getNMISourceStatus)
    SysCtl_getTLVInfo                        0x00000cd9   Thumb Code    72  sysctl.o(i.SysCtl_getTLVInfo)
    SysInit                                  0x00000d29   Thumb Code   126  sysinit.o(i.SysInit)
    SystemInit                               0x00000db5   Thumb Code    90  system_msp432p401r.o(i.SystemInit)
    TA2_0_IRQHandler                         0x00000e31   Thumb Code   126  tima.o(i.TA2_0_IRQHandler)
    TimA0_4_PWM_Init                         0x00000ec9   Thumb Code    14  tima.o(i.TimA0_4_PWM_Init)
    TimA0_4_PWM_set_duty                     0x00000edd   Thumb Code    66  tima.o(i.TimA0_4_PWM_set_duty)
    TimA0_4_PWM_stop                         0x00000f39   Thumb Code     6  tima.o(i.TimA0_4_PWM_stop)
    TimA1_4_PWM_Init                         0x00000f41   Thumb Code    34  tima.o(i.TimA1_4_PWM_Init)
    TimA1_4_PWM_set_angle                    0x00000f71   Thumb Code    88  tima.o(i.TimA1_4_PWM_set_angle)
    TimA2_Int_Init                           0x00000ff5   Thumb Code   100  tima.o(i.TimA2_Int_Init)
    WDT_A_holdTimer                          0x00001065   Thumb Code    18  wdt_a.o(i.WDT_A_holdTimer)
    __scatterload_copy                       0x00001189   Thumb Code    14  handlers.o(i.__scatterload_copy)
    __scatterload_null                       0x00001197   Thumb Code     2  handlers.o(i.__scatterload_null)
    __scatterload_zeroinit                   0x00001199   Thumb Code    14  handlers.o(i.__scatterload_zeroinit)
    delay_init                               0x000011a9   Thumb Code    30  delay.o(i.delay_init)
    delay_ms                                 0x000011d1   Thumb Code    24  delay.o(i.delay_ms)
    delay_us                                 0x000011e9   Thumb Code    46  delay.o(i.delay_us)
    key_Init                                 0x0000121d   Thumb Code     8  key.o(i.key_Init)
    key_Value                                0x00001225   Thumb Code    46  key.o(i.key_Value)
    main                                     0x00001255   Thumb Code   212  msp432carmain.o(i.main)
    motor_pinint                             0x00001335   Thumb Code     8  msp432carmain.o(i.motor_pinint)
    read_sensor_values                       0x0000133d   Thumb Code   294  tima.o(i.read_sensor_values)
    read_us_values                           0x0000147d   Thumb Code    14  tima.o(i.read_us_values)
    start                                    0x00001491   Thumb Code    28  msp432carmain.o(i.start)
    stop                                     0x000014ad   Thumb Code    26  msp432carmain.o(i.stop)
    uartConfig                               0x000014c8   Data          36  msp432carmain.o(.constdata)
    Region$$Table$$Base                      0x000014ec   Number         0  anon$$obj.o(Region$$Table)
    Region$$Table$$Limit                     0x0000150c   Number         0  anon$$obj.o(Region$$Table)
    measureValue                             0x20000008   Data           4  tima.o(.data)
    CCR0                                     0x20000010   Data           4  tima.o(.data)
    trackPid                                 0x20000014   Data          56  tima.o(.data)
    trackPid_DC                              0x2000004c   Data          56  tima.o(.data)
    __initial_sp                             0x200002f0   Data           0  startup_msp432p401r_uvision.o(STACK)



==============================================================================

Memory Map of the image

  Image Entry point : 0x00000145

  Load Region LR_IROM1 (Base: 0x00000000, Size: 0x000015f8, Max: 0x00040000, ABSOLUTE)

    Execution Region ER_IROM1 (Exec base: 0x00000000, Load base: 0x00000000, Size: 0x0000150c, Max: 0x00040000, ABSOLUTE)

    Exec Addr    Load Addr    Size         Type   Attr      Idx    E Section Name        Object

    0x00000000   0x00000000   0x00000144   Data   RO          433    RESET               startup_msp432p401r_uvision.o
    0x00000144   0x00000144   0x00000000   Code   RO          763  * .ARM.Collect$$$$00000000  mc_w.l(entry.o)
    0x00000144   0x00000144   0x00000004   Code   RO          776    .ARM.Collect$$$$00000001  mc_w.l(entry2.o)
    0x00000148   0x00000148   0x00000004   Code   RO          779    .ARM.Collect$$$$00000004  mc_w.l(entry5.o)
    0x0000014c   0x0000014c   0x00000000   Code   RO          781    .ARM.Collect$$$$00000008  mc_w.l(entry7b.o)
    0x0000014c   0x0000014c   0x00000000   Code   RO          783    .ARM.Collect$$$$0000000A  mc_w.l(entry8b.o)
    0x0000014c   0x0000014c   0x00000008   Code   RO          784    .ARM.Collect$$$$0000000B  mc_w.l(entry9a.o)
    0x00000154   0x00000154   0x00000004   Code   RO          791    .ARM.Collect$$$$0000000E  mc_w.l(entry12b.o)
    0x00000158   0x00000158   0x00000000   Code   RO          786    .ARM.Collect$$$$0000000F  mc_w.l(entry10a.o)
    0x00000158   0x00000158   0x00000000   Code   RO          788    .ARM.Collect$$$$00000011  mc_w.l(entry11a.o)
    0x00000158   0x00000158   0x00000004   Code   RO          777    .ARM.Collect$$$$00002712  mc_w.l(entry2.o)
    0x0000015c   0x0000015c   0x00000026   Code   RO          716    .emb_text           msp432p4xx_driverlib.lib(cpu.o)
    0x00000182   0x00000182   0x00000002   PAD
    0x00000184   0x00000184   0x00000024   Code   RO          434    .text               startup_msp432p401r_uvision.o
    0x000001a8   0x000001a8   0x0000014e   Code   RO          766    .text               mf_w.l(dadd.o)
    0x000002f6   0x000002f6   0x000000e4   Code   RO          768    .text               mf_w.l(dmul.o)
    0x000003da   0x000003da   0x000000de   Code   RO          770    .text               mf_w.l(ddiv.o)
    0x000004b8   0x000004b8   0x00000022   Code   RO          772    .text               mf_w.l(dflti.o)
    0x000004da   0x000004da   0x00000032   Code   RO          774    .text               mf_w.l(dfixui.o)
    0x0000050c   0x0000050c   0x0000001e   Code   RO          792    .text               mc_w.l(llshl.o)
    0x0000052a   0x0000052a   0x00000020   Code   RO          794    .text               mc_w.l(llushr.o)
    0x0000054a   0x0000054a   0x00000024   Code   RO          796    .text               mc_w.l(llsshr.o)
    0x0000056e   0x0000056e   0x00000000   Code   RO          798    .text               mc_w.l(iusefp.o)
    0x0000056e   0x0000056e   0x000000ba   Code   RO          799    .text               mf_w.l(depilogue.o)
    0x00000628   0x00000628   0x00000024   Code   RO          801    .text               mc_w.l(init.o)
    0x0000064c   0x0000064c   0x00000170   Code   RO          488    i.CS_getDCOFrequency  msp432p4xx_driverlib.lib(cs.o)
    0x000007bc   0x000007bc   0x00000018   Code   RO          492    i.CS_getMCLK        msp432p4xx_driverlib.lib(cs.o)
    0x000007d4   0x000007d4   0x0000000c   Code   RO          500    i.CS_setExternalClockSourceFrequency  msp432p4xx_driverlib.lib(cs.o)
    0x000007e0   0x000007e0   0x00000006   Code   RO          503    i.CS_startHFXT      msp432p4xx_driverlib.lib(cs.o)
    0x000007e6   0x000007e6   0x00000002   PAD
    0x000007e8   0x000007e8   0x00000144   Code   RO          504    i.CS_startHFXTWithTimeout  msp432p4xx_driverlib.lib(cs.o)
    0x0000092c   0x0000092c   0x00000006   Code   RO          505    i.CS_startLFXT      msp432p4xx_driverlib.lib(cs.o)
    0x00000932   0x00000932   0x00000002   PAD
    0x00000934   0x00000934   0x000000b4   Code   RO          506    i.CS_startLFXTWithTimeout  msp432p4xx_driverlib.lib(cs.o)
    0x000009e8   0x000009e8   0x00000080   Code   RO          296    i.Distance          tima.o
    0x00000a68   0x00000a68   0x00000058   Code   RO          297    i.EUSCIB0_IRQHandler  tima.o
    0x00000ac0   0x00000ac0   0x00000014   Code   RO          554    i.GPIO_getInputPinValue  msp432p4xx_driverlib.lib(gpio.o)
    0x00000ad4   0x00000ad4   0x00000028   Code   RO          558    i.GPIO_setAsInputPin  msp432p4xx_driverlib.lib(gpio.o)
    0x00000afc   0x00000afc   0x0000002c   Code   RO          560    i.GPIO_setAsInputPinWithPullUpResistor  msp432p4xx_driverlib.lib(gpio.o)
    0x00000b28   0x00000b28   0x00000020   Code   RO          561    i.GPIO_setAsOutputPin  msp432p4xx_driverlib.lib(gpio.o)
    0x00000b48   0x00000b48   0x00000014   Code   RO          566    i.GPIO_setOutputHighOnPin  msp432p4xx_driverlib.lib(gpio.o)
    0x00000b5c   0x00000b5c   0x00000014   Code   RO          567    i.GPIO_setOutputLowOnPin  msp432p4xx_driverlib.lib(gpio.o)
    0x00000b70   0x00000b70   0x00000040   Code   RO          298    i.HCSR04Init        tima.o
    0x00000bb0   0x00000bb0   0x0000000e   Code   RO          603    i.Interrupt_enableMaster  msp432p4xx_driverlib.lib(interrupt.o)
    0x00000bbe   0x00000bbe   0x00000002   PAD
    0x00000bc0   0x00000bc0   0x00000020   Code   RO          413    i.PID_Init          pid.o
    0x00000be0   0x00000be0   0x000000ca   Code   RO          414    i.PID_Update        pid.o
    0x00000caa   0x00000caa   0x00000002   PAD
    0x00000cac   0x00000cac   0x00000010   Code   RO          725    i.SysCtl_disableNMISource  msp432p4xx_driverlib.lib(sysctl.o)
    0x00000cbc   0x00000cbc   0x00000010   Code   RO          730    i.SysCtl_enableNMISource  msp432p4xx_driverlib.lib(sysctl.o)
    0x00000ccc   0x00000ccc   0x0000000c   Code   RO          735    i.SysCtl_getNMISourceStatus  msp432p4xx_driverlib.lib(sysctl.o)
    0x00000cd8   0x00000cd8   0x00000050   Code   RO          737    i.SysCtl_getTLVInfo  msp432p4xx_driverlib.lib(sysctl.o)
    0x00000d28   0x00000d28   0x0000008c   Code   RO          272    i.SysInit           sysinit.o
    0x00000db4   0x00000db4   0x0000007c   Code   RO          442    i.SystemInit        system_msp432p401r.o
    0x00000e30   0x00000e30   0x00000098   Code   RO          299    i.TA2_0_IRQHandler  tima.o
    0x00000ec8   0x00000ec8   0x00000014   Code   RO          300    i.TimA0_4_PWM_Init  tima.o
    0x00000edc   0x00000edc   0x0000005c   Code   RO          301    i.TimA0_4_PWM_set_duty  tima.o
    0x00000f38   0x00000f38   0x00000006   Code   RO          302    i.TimA0_4_PWM_stop  tima.o
    0x00000f3e   0x00000f3e   0x00000002   PAD
    0x00000f40   0x00000f40   0x00000030   Code   RO          303    i.TimA1_4_PWM_Init  tima.o
    0x00000f70   0x00000f70   0x00000084   Code   RO          304    i.TimA1_4_PWM_set_angle  tima.o
    0x00000ff4   0x00000ff4   0x00000070   Code   RO          306    i.TimA2_Int_Init    tima.o
    0x00001064   0x00001064   0x00000018   Code   RO          693    i.WDT_A_holdTimer   msp432p4xx_driverlib.lib(wdt_a.o)
    0x0000107c   0x0000107c   0x0000010c   Code   RO          509    i._CSComputeCLKFrequency  msp432p4xx_driverlib.lib(cs.o)
    0x00001188   0x00001188   0x0000000e   Code   RO          805    i.__scatterload_copy  mc_w.l(handlers.o)
    0x00001196   0x00001196   0x00000002   Code   RO          806    i.__scatterload_null  mc_w.l(handlers.o)
    0x00001198   0x00001198   0x0000000e   Code   RO          807    i.__scatterload_zeroinit  mc_w.l(handlers.o)
    0x000011a6   0x000011a6   0x00000002   PAD
    0x000011a8   0x000011a8   0x00000028   Code   RO          204    i.delay_init        delay.o
    0x000011d0   0x000011d0   0x00000018   Code   RO          205    i.delay_ms          delay.o
    0x000011e8   0x000011e8   0x00000034   Code   RO          206    i.delay_us          delay.o
    0x0000121c   0x0000121c   0x00000008   Code   RO          242    i.key_Init          key.o
    0x00001224   0x00001224   0x0000002e   Code   RO          243    i.key_Value         key.o
    0x00001252   0x00001252   0x00000002   PAD
    0x00001254   0x00001254   0x000000e0   Code   RO            5    i.main              msp432carmain.o
    0x00001334   0x00001334   0x00000008   Code   RO            6    i.motor_pinint      msp432carmain.o
    0x0000133c   0x0000133c   0x00000140   Code   RO          308    i.read_sensor_values  tima.o
    0x0000147c   0x0000147c   0x00000014   Code   RO          309    i.read_us_values    tima.o
    0x00001490   0x00001490   0x0000001c   Code   RO            7    i.start             msp432carmain.o
    0x000014ac   0x000014ac   0x0000001a   Code   RO            8    i.stop              msp432carmain.o
    0x000014c6   0x000014c6   0x00000002   PAD
    0x000014c8   0x000014c8   0x00000024   Data   RO            9    .constdata          msp432carmain.o
    0x000014ec   0x000014ec   0x00000020   Data   RO          803    Region$$Table       anon$$obj.o


    Execution Region RW_IRAM1 (Exec base: 0x20000000, Load base: 0x0000150c, Size: 0x000002f0, Max: 0x00010000, ABSOLUTE)

    Exec Addr    Load Addr    Size         Type   Attr      Idx    E Section Name        Object

    0x20000000   0x0000150c   0x00000001   Data   RW          207    .data               delay.o
    0x20000001   0x0000150d   0x00000003   PAD
    0x20000004   0x00001510   0x000000b0   Data   RW          314    .data               tima.o
    0x200000b4   0x000015c0   0x00000008   Data   RW          510    .data               msp432p4xx_driverlib.lib(cs.o)
    0x200000bc   0x000015c8   0x00000030   Data   RW          571    .data               msp432p4xx_driverlib.lib(gpio.o)
    0x200000ec   0x000015f8   0x00000004   PAD
    0x200000f0        -       0x00000200   Zero   RW          431    STACK               startup_msp432p401r_uvision.o


==============================================================================

Image component sizes


      Code (inc. data)   RO Data    RW Data    ZI Data      Debug   Object Name

       116         16          0          1          0       1643   delay.o
        54          0          0          0          0        959   key.o
       286         12         36          0          0      21486   msp432carmain.o
       234          6          0          0          0       1544   pid.o
        36          8        324          0        512        856   startup_msp432p401r_uvision.o
       140         14          0          0          0        502   sysinit.o
       124         34          0          0          0        569   system_msp432p401r.o
      1182        196          0        176          0       7935   tima.o

    ----------------------------------------------------------------------
      2180        286        392        180        512      35494   Object Totals
         0          0         32          0          0          0   (incl. Generated)
         8          0          0          3          0          0   (incl. Padding)

    ----------------------------------------------------------------------

      Code (inc. data)   RO Data    RW Data    ZI Data      Debug   Library Member Name

         0          0          0          0          0          0   entry.o
         0          0          0          0          0          0   entry10a.o
         0          0          0          0          0          0   entry11a.o
         4          0          0          0          0          0   entry12b.o
         8          4          0          0          0          0   entry2.o
         4          0          0          0          0          0   entry5.o
         0          0          0          0          0          0   entry7b.o
         0          0          0          0          0          0   entry8b.o
         8          4          0          0          0          0   entry9a.o
        30          0          0          0          0          0   handlers.o
        36          8          0          0          0         68   init.o
         0          0          0          0          0          0   iusefp.o
        30          0          0          0          0         68   llshl.o
        36          0          0          0          0         68   llsshr.o
        32          0          0          0          0         68   llushr.o
       334          0          0          0          0        148   dadd.o
       222          0          0          0          0        100   ddiv.o
       186          0          0          0          0        176   depilogue.o
        50          0          0          0          0         76   dfixui.o
        34          0          0          0          0         76   dflti.o
       228          0          0          0          0         96   dmul.o
        38          0          0          0          0        196   cpu.o
      1188        174          0          8          0       1024   cs.o
       176         32          0         48          0        696   gpio.o
        14          0          0          0          0        124   interrupt.o
       124         24          0          0          0        476   sysctl.o
        24          6          0          0          0        116   wdt_a.o

    ----------------------------------------------------------------------
      2816        252          0         56          4       3576   Library Totals
        10          0          0          0          4          0   (incl. Padding)

    ----------------------------------------------------------------------

      Code (inc. data)   RO Data    RW Data    ZI Data      Debug   Library Name

       188         16          0          0          0        272   mc_w.l
      1054          0          0          0          0        672   mf_w.l
      1564        236          0         56          0       2632   msp432p4xx_driverlib.lib

    ----------------------------------------------------------------------
      2816        252          0         56          4       3576   Library Totals

    ----------------------------------------------------------------------

==============================================================================


      Code (inc. data)   RO Data    RW Data    ZI Data      Debug   

      4996        538        392        236        516      35058   Grand Totals
      4996        538        392        236        516      35058   ELF Image Totals
      4996        538        392        236          0          0   ROM Totals

==============================================================================

    Total RO  Size (Code + RO Data)                 5388 (   5.26kB)
    Total RW  Size (RW Data + ZI Data)               752 (   0.73kB)
    Total ROM Size (Code + RO Data + RW Data)       5624 (   5.49kB)

==============================================================================

